:0201BF00A9078E
:1001C100E4FDC2A6C2A5FB74807E00A803088006D8
:1001D100CEA2E713CE13D8F8FFE9F582EF558224BA
:1001E100FF92A4D2A6C2A60BBB08DCE4FBD2A6C236
:1001F100A630A711E47E80A803088005CEC313CEE4
:0D02010013D8F942050BBB10E4D2A57F0015
:01020E0022CD
:10026F00EF1FAC0670011E4C600A7D027CEFDCFEB6
:04027F00DDFC80EC36
:010283002258
:10020F008E118F12C28012026FD280C3741095129A
:09021F00FF74279511FE02026F25
:100228008E138F14C28112026FD281C374FF95148A
:08023800FFE49513FE02026FC2
:100240008E158F16C28212026FD282C374FF95166A
:08025000FFE49515FE02026FA8
:10000E001202587580FF75B0FF7590FF75A0FFE462
:10001E00F50AF50BF50CF50875100175091920B0E8
:10002E0003750A0130B003E4F50A20B103750B0124
:10003E0030B103E4F50B20B203750C0130B203E4CA
:10004E00F50C20B303750D0130B303E4F50D20B4A8
:10005E003430B4FD0510E51075F0058485F010E51B
:10006E00107002F509E510B40103750919E510B415
:10007E000203750932E510B4030375094BE510B49C
:10008E00040375096420B59630B5FD1510E510759D
:10009E00F0058485F010E5107002F509E510B40145
:1000AE0003750919E510B40203750932E510B4039E
:1000BE000375094BE5106404600302002C75096496
:0300CE0002002C01
:03000B0002015C93
:10015C00C0E0C0F0C0D0758A9C758CFF050FE50F10
:10016C0075F0648485F00FE50FC395095015E50A09
:10017C00B40102C290E50BB40102C291E50CB401CA
:10018C0002C292E50D6401701D309315E50AB401AD
:10019C0002C290E50BB40102C291E50CB40102C29B
:1001AC00922093088000D290D291D292D0D0D0F0ED
:0301BC00D0E0325E
:100258005389F0438901758A9C758CFFC28DD28CB5
:07026800D2A9D2AFC2B922F6
:1000D100E4F51720B00D7FE87E0312026F30B00304
:1000E10075170130B00D7FF47E0112026F20B0034D
:1000F10075170220B1147F147E0012026F30B1FD1A
:100101007F147E0012026F75170220B2147F147ED5
:100111000012026F30B2FD7F147E0012026F75175C
:100121000320B3147F147E0012026F30B3FD7F14DD
:100131007E0012026F75170420B40D7FE87E031252
:10014100026F30B40375170530B40D7FE87E0312DA
:0A015100026F20B403751706AF1704
:01015B002281
:0300000002028475
:0C028400787FE4F6D8FD75811702000EAB
:00000001FF
